{
  "contractName": "DistKeyContract",
  "abi": [
    {
      "inputs": [],
      "stateMutability": "nonpayable",
      "type": "constructor"
    },
    {
      "anonymous": false,
      "inputs": [
        {
          "indexed": false,
          "internalType": "bool",
          "name": "enabled",
          "type": "bool"
        }
      ],
      "name": "DKGEnabledChanged",
      "type": "event"
    },
    {
      "anonymous": false,
      "inputs": [
        {
          "indexed": false,
          "internalType": "uint256",
          "name": "threshold",
          "type": "uint256"
        }
      ],
      "name": "DistKeyGenerationLog",
      "type": "event"
    },
    {
      "anonymous": false,
      "inputs": [
        {
          "indexed": false,
          "internalType": "uint256[4]",
          "name": "pubkey",
          "type": "uint256[4]"
        },
        {
          "indexed": false,
          "internalType": "uint256",
          "name": "numberOfValidators",
          "type": "uint256"
        }
      ],
      "name": "PublicKeyUpdated",
      "type": "event"
    },
    {
      "anonymous": false,
      "inputs": [
        {
          "indexed": false,
          "internalType": "address",
          "name": "registry",
          "type": "address"
        }
      ],
      "name": "RegistryContractSet",
      "type": "event"
    },
    {
      "inputs": [],
      "name": "KEY_FINAL_TIME",
      "outputs": [
        {
          "internalType": "uint256",
          "name": "",
          "type": "uint256"
        }
      ],
      "stateMutability": "view",
      "type": "function",
      "constant": true
    },
    {
      "inputs": [],
      "name": "KEY_GEN_INTERVAL",
      "outputs": [
        {
          "internalType": "uint256",
          "name": "",
          "type": "uint256"
        }
      ],
      "stateMutability": "view",
      "type": "function",
      "constant": true
    },
    {
      "inputs": [],
      "name": "admin",
      "outputs": [
        {
          "internalType": "address",
          "name": "",
          "type": "address"
        }
      ],
      "stateMutability": "view",
      "type": "function",
      "constant": true
    },
    {
      "inputs": [],
      "name": "dkgEnabled",
      "outputs": [
        {
          "internalType": "bool",
          "name": "",
          "type": "bool"
        }
      ],
      "stateMutability": "view",
      "type": "function",
      "constant": true
    },
    {
      "inputs": [
        {
          "internalType": "bool",
          "name": "enabled",
          "type": "bool"
        }
      ],
      "name": "setDKGEnabled",
      "outputs": [],
      "stateMutability": "nonpayable",
      "type": "function"
    },
    {
      "inputs": [
        {
          "internalType": "address",
          "name": "_registryContract",
          "type": "address"
        }
      ],
      "name": "setRegistryContract",
      "outputs": [],
      "stateMutability": "nonpayable",
      "type": "function"
    },
    {
      "inputs": [],
      "name": "generate",
      "outputs": [],
      "stateMutability": "nonpayable",
      "type": "function"
    },
    {
      "inputs": [],
      "name": "getNumberOfValidators",
      "outputs": [
        {
          "internalType": "uint256",
          "name": "",
          "type": "uint256"
        }
      ],
      "stateMutability": "view",
      "type": "function",
      "constant": true
    },
    {
      "inputs": [],
      "name": "getPublicKey",
      "outputs": [
        {
          "internalType": "uint256[4]",
          "name": "",
          "type": "uint256[4]"
        }
      ],
      "stateMutability": "view",
      "type": "function",
      "constant": true
    },
    {
      "inputs": [
        {
          "internalType": "uint256[4]",
          "name": "_publicKey",
          "type": "uint256[4]"
        },
        {
          "internalType": "uint256",
          "name": "_numberOfValidators",
          "type": "uint256"
        }
      ],
      "name": "setPublicKey",
      "outputs": [],
      "stateMutability": "nonpayable",
      "type": "function"
    },
    {
      "inputs": [],
      "name": "disputePublicKey",
      "outputs": [],
      "stateMutability": "nonpayable",
      "type": "function"
    }
  ],
  "bytecode": "0x60a0346102d057336080527f198e9393920d483a7260bfb731fb5d25f1aa493335a9e71297e485b7aef312c260039081557f1800deef121f1e76426a00665e5c4479674322d4f75edadd46debd5cd992f6ed6004557f090689d0585ff075ec9e99ad690c3395bc4b313370b38ef355acdadcd122975b6005557f12c85ea5db8c6deb4aab71808dcb408fe3d1e7690c43d37b4ce6cc0166fa7daa6006556000825b600482106102ba5783608081016001600160401b038111828210176102a45780604052600080516020610dec8339815191528251101561027657506020810190600080516020610dec833981519152825110156102445760408101600080516020610dec83398151915281511015610212576060820191600080516020610dec833981519152835110156101e057511592836101d6575b50826101cc575b50816101c2575b506101905760006009556001600755600a805460ff60a01b191690556002805460ff19169055604051610b1690816102d6823960805181818160cb0152818161055d01526108ae0152f35b60405162461bcd60e51b815260206004820152600a602482015269706b206973207a65726f60b01b6044820152606490fd5b9050511581610145565b511591508261013e565b5115925083610137565b60405162461bcd60e51b815260206004820152600a6024820152690706b5b335d203e3d20760b41b6044820152606490fd5b60405162461bcd60e51b815260206004820152600a6024820152690706b5b325d203e3d20760b41b6044820152606490fd5b60405162461bcd60e51b815260206004820152600a6024820152690706b5b315d203e3d20760b41b6044820152606490fd5b690706b5b305d203e3d20760b41b60c460649362461bcd60e51b845260206084820152600a60a48201520152fd5b634e487b7160e01b600052604160045260246000fd5b60016020819285548152019301910190916100a0565b600080fdfe6080604052600436101561001257600080fd5b6000803560e01c8063028ebc44146108815780632a1bbc34146107005780632e3344521461063c5780633a12141d146105e257806342fd6d2e146105125780639031d913146104f4578063c09cd231146104d8578063d0807b90146104b2578063f4cc18a3146100fa578063f851a440146100b55763fcb0801e1461009657600080fd5b346100b257806003193601126100b25760206040516103e78152f35b80fd5b50346100b257806003193601126100b2576040517f00000000000000000000000000000000000000000000000000000000000000006001600160a01b03168152602090f35b50346100b25760a03660031901126100b257366084116100b25760843590600a5461012a60ff8260a01c166109d7565b60ff600254161561047c576024906020906001600160a01b031661014f811515610a4a565b604051630a079ed560e11b815233600482015292839182905afa908115610471578291610432575b50156103fc5760015482106103c257604051610194608082610a12565b6004815b608482106103b2575050600080516020610ac183398151915281511015610380576020810190600080516020610ac18339815191528251101561034e5760408101600080516020610ac18339815191528151101561031c576060820191600080516020610ac1833981519152835110156102ea57511592836102e0575b50826102d6575b50816102cc575b5061029a576004815b60048110610285576007849055436009556002805460ff191690557f5887919ad78663c6cdec32fc4e6e58f29e52c6319c22968519d9d3fa2b1fecad60a085610273610a89565b604051906080600483376080820152a1005b6001906020833593019281600301550161022c565b60405162461bcd60e51b815260206004820152600a602482015269706b206973207a65726f60b01b6044820152606490fd5b9050511538610223565b511591503861021c565b5115925038610215565b60405162461bcd60e51b815260206004820152600a6024820152690706b5b335d203e3d20760b41b6044820152606490fd5b60405162461bcd60e51b815260206004820152600a6024820152690706b5b325d203e3d20760b41b6044820152606490fd5b60405162461bcd60e51b815260206004820152600a6024820152690706b5b315d203e3d20760b41b6044820152606490fd5b60405162461bcd60e51b815260206004820152600a6024820152690706b5b305d203e3d20760b41b6044820152606490fd5b8135815260209182019101610198565b60405162461bcd60e51b8152602060048201526012602482015271746f6f206665772076616c696461746f727360701b6044820152606490fd5b60405162461bcd60e51b815260206004820152600e60248201526d1b9bdd081c9959da5cdd195c995960921b6044820152606490fd5b90506020813d602011610469575b8161044d60209383610a12565b81010312610465575180151581036104655738610177565b5080fd5b3d9150610440565b6040513d84823e3d90fd5b60405162461bcd60e51b815260206004820152600e60248201526d6e6f742067656e65726174696e6760901b6044820152606490fd5b50346100b257806003193601126100b257602060ff600a5460a01c166040519015158152f35b50346100b257806003193601126100b257602090604051908152f35b50346100b257806003193601126100b2576020600754604051908152f35b50346100b25760203660031901126100b257600435801580158092036105de577f704d34edbb65788b2ec7089d5ee3254a54e84ddd766d6ee87b27acabf4f990159160209161058b337f00000000000000000000000000000000000000000000000000000000000000006001600160a01b03161461099f565b600a546105a26001600160a01b0382161515610a4a565b60ff60a01b191660a083901b60ff60a01b1617600a556105c7575b604051908152a180f35b60ff19600254166002556105d9610a89565b6105bd565b8280fd5b50346100b257806003193601126100b25761060460ff600a5460a01c166109d7565b60405162461bcd60e51b815260206004820152601060248201526f191a5cdc1d5d1948191a5cd8589b195960821b6044820152606490fd5b50346100b257806003193601126100b2576080908160405161065e8282610a12565b36903760095443106106c857604051600382825b600482106106b257505050906106888383610a12565b6040519190825b6004821061069c57505050f35b602080600192855181520193019101909161068f565b6001602081928554815201930191019091610672565b60405162461bcd60e51b815260206004820152601060248201526f1c1d5892d95e481b9bdd08199a5b985b60821b6044820152606490fd5b50346100b257806003193601126100b257600a546001600160a01b038116330361084b5760ff6107339160a01c166109d7565b600a546040516341b78c3d60e11b815290602090829060049082906001600160a01b03165afa908115610471578291610819575b5080156107e957600181018082116107d55760011c908183558181039081116107d55760011c81018082116107d5577fd5bc20dfd67f9905e22927db6247633f2bf9ca553e4dd2f850259c941489312791602091600155600160ff196002541617600255604051908152a180f35b634e487b7160e01b83526011600452602483fd5b60405162461bcd60e51b81526020600482015260086024820152676e6f206e6f64657360c01b6044820152606490fd5b90506020813d602011610843575b8161083460209383610a12565b81010312610465575138610767565b3d9150610827565b60405162461bcd60e51b815260206004820152600e60248201526d34b73b30b634b21039b2b73232b960911b6044820152606490fd5b50346100b25760203660031901126100b2576004356001600160a01b03811690819003610465576108dc337f00000000000000000000000000000000000000000000000000000000000000006001600160a01b03161461099f565b801561096d57600a546001600160a01b038116610931576001600160a01b0319168117600a556040519081527ffdf3a4efeb87cf4efd75fad4af5f737c1bd95c0398ca94760e023a4f0e56fc2490602090a180f35b60405162461bcd60e51b81526020600482015260146024820152731c9959da5cdd1c9e48185b1c9958591e481cd95d60621b6044820152606490fd5b60405162461bcd60e51b815260206004820152600a602482015269072656769737472793d360b41b6044820152606490fd5b156109a657565b60405162461bcd60e51b81526020600482015260096024820152683737ba1030b236b4b760b91b6044820152606490fd5b156109de57565b60405162461bcd60e51b815260206004820152600c60248201526b1112d1c8191a5cd8589b195960a21b6044820152606490fd5b90601f8019910116810190811067ffffffffffffffff821117610a3457604052565b634e487b7160e01b600052604160045260246000fd5b15610a5157565b60405162461bcd60e51b815260206004820152601060248201526f1c9959da5cdd1c9e481b9bdd081cd95d60821b6044820152606490fd5b600854600060085580610a995750565b6008600052602060002060005b828110610ab257505050565b600082820155600101610aa656fe30644e72e131a029b85045b68181585d97816a916871ca8d3c208c16d87cfd47a2646970667358221220ff7174da71c01b261d0b49e2b7b7a134a43275b5a64bf06c211795a4a31a173a64736f6c6343000821003330644e72e131a029b85045b68181585d97816a916871ca8d3c208c16d87cfd47",
  "immutableReferences": {
    "643": [
      {
        "length": 32,
        "start": 203
      },
      {
        "length": 32,
        "start": 1373
      },
      {
        "length": 32,
        "start": 2222
      }
    ]
  },
  "source": "// SPDX-License-Identifier: MIT\npragma solidity ^0.8.0;\n\nimport \"./RegistryContract.sol\";\n\ncontract DistKeyContract {\n    // ============================================================\n    // 说明：\n    // - 本合约默认“锁死”DKG，使用硬编码 master pubkey（G2）\n    // - 仅当 admin 显式开启 dkgEnabled 后，才允许 generate / setPublicKey / dispute\n    // - publicKey 的存储顺序固定为“合约侧 pairing 输入顺序（你的系统约定）”：\n    //      [X_IM, X_RE, Y_IM, Y_RE]\n    //\n    // ✅ 关键修正（消除 IM/RE 认知反转）：\n    // 你当前 Kyber MarshalBinary 的 G2 前 64 bytes 是：\n    //   rb[0:32] = 0x198e...   rb[32:64] = 0x1800...\n    // 因此在本系统中，将 0x198e 视为 X_IM，将 0x1800 视为 X_RE；\n    // 同理，将 0x0906 视为 Y_IM，将 0x12c8 视为 Y_RE。\n    // 这样链上“命名”和 Go 侧“实际编码”一致，避免靠 swap 兜底。\n    // ============================================================\n\n    // 禁用自动 DKG，保护硬编码公钥\n    uint256 public constant KEY_GEN_INTERVAL = 999;\n    uint256 public constant KEY_FINAL_TIME = 0;\n\n    // BN254 / alt_bn128 base field prime\n    uint256 internal constant BN254_P =\n        21888242871839275222246405745257275088696311157297823662689037894645226208583;\n\n    event DistKeyGenerationLog(uint256 threshold);\n    event DKGEnabledChanged(bool enabled);\n    event RegistryContractSet(address registry);\n    event PublicKeyUpdated(uint256[4] pubkey, uint256 numberOfValidators);\n\n    address public immutable admin;\n\n    uint256 private signatureThreshold;\n    uint256 private validatorThreshold;\n    bool private generating;\n\n    // G2 public key in contract order [X_IM, X_RE, Y_IM, Y_RE]\n    uint256[4] private publicKey;\n    uint256 private numberOfValidators;\n\n    address[] private disputes;\n    uint256 private publicKeyFinal;\n\n    RegistryContract private registryContract;\n\n    // 默认锁死，防止 dispute / setPublicKey 改掉\n    bool public dkgEnabled;\n\n    constructor() {\n        admin = msg.sender;\n\n        // ============================================================\n        // ✅ 修正后的硬编码 G2 Generator (Priv=1)，按你系统约定存储：\n        // publicKey = [X_IM, X_RE, Y_IM, Y_RE]\n        //\n        // 其中：\n        // X_IM = 0x198e...  X_RE = 0x1800...\n        // Y_IM = 0x0906...  Y_RE = 0x12c8...\n        // ============================================================\n        publicKey[0] = 0x198e9393920d483a7260bfb731fb5d25f1aa493335a9e71297e485b7aef312c2; // X_IM\n        publicKey[1] = 0x1800deef121f1e76426a00665e5c4479674322d4f75edadd46debd5cd992f6ed; // X_RE\n        publicKey[2] = 0x090689d0585ff075ec9e99ad690c3395bc4b313370b38ef355acdadcd122975b; // Y_IM\n        publicKey[3] = 0x12c85ea5db8c6deb4aab71808dcb408fe3d1e7690c43d37b4ce6cc0166fa7daa; // Y_RE\n\n        _validateG2Limbs(publicKey);\n\n        // 立即 final（因为 KEY_FINAL_TIME=0）\n        publicKeyFinal = 0;\n        numberOfValidators = 1;\n\n        // 默认禁用 DKG（锁死）\n        dkgEnabled = false;\n        generating = false;\n    }\n\n    modifier onlyAdmin() {\n        require(msg.sender == admin, \"not admin\");\n        _;\n    }\n\n    function setDKGEnabled(bool enabled) external onlyAdmin {\n        // 强制要求 registry 已设置，避免误开启后被 0 地址卡死\n        require(address(registryContract) != address(0), \"registry not set\");\n        dkgEnabled = enabled;\n\n        // 关闭 DKG 时，清理 generating 状态与争议\n        if (!enabled) {\n            generating = false;\n            delete disputes;\n        }\n\n        emit DKGEnabledChanged(enabled);\n    }\n\n    function setRegistryContract(address _registryContract) external onlyAdmin {\n        require(_registryContract != address(0), \"registry=0\");\n        require(address(registryContract) == address(0), \"registry already set\");\n        registryContract = RegistryContract(_registryContract);\n        emit RegistryContractSet(_registryContract);\n    }\n\n    // Registry 合约触发 key generation\n    function generate() public {\n        require(msg.sender == address(registryContract), \"invalid sender\");\n        require(dkgEnabled, \"DKG disabled\");\n        _generateKey();\n    }\n\n    function _generateKey() private {\n        uint256 noNodes = registryContract.countOracleNodes();\n        require(noNodes > 0, \"no nodes\");\n\n        signatureThreshold = (noNodes + 1) / 2;\n        validatorThreshold = signatureThreshold + (noNodes - signatureThreshold) / 2;\n\n        generating = true;\n        emit DistKeyGenerationLog(signatureThreshold);\n    }\n\n    function getNumberOfValidators() external view returns (uint256) {\n        return numberOfValidators;\n    }\n\n    function getPublicKey() external view returns (uint256[4] memory) {\n        require(block.number >= publicKeyFinal, \"pubKey not final\");\n        return publicKey;\n    }\n\n    function setPublicKey(uint256[4] calldata _publicKey, uint256 _numberOfValidators) external {\n        require(dkgEnabled, \"DKG disabled\");\n        require(generating, \"not generating\");\n        require(address(registryContract) != address(0), \"registry not set\");\n        require(registryContract.oracleNodeIsRegistered(msg.sender), \"not registered\");\n        require(_numberOfValidators >= validatorThreshold, \"too few validators\");\n\n        // 关键：防止传入 >= p 的 limb 导致 pairing precompile 直接失败\n        _validateG2Limbs(_publicKey);\n\n        publicKey = _publicKey;\n        numberOfValidators = _numberOfValidators;\n\n        // KEY_FINAL_TIME=0 => 立即 final\n        publicKeyFinal = block.number + KEY_FINAL_TIME;\n\n        generating = false;\n        delete disputes;\n\n        emit PublicKeyUpdated(_publicKey, _numberOfValidators);\n    }\n\n    function disputePublicKey() external {\n        require(dkgEnabled, \"DKG disabled\");\n        require(KEY_FINAL_TIME > 0, \"dispute disabled\"); // KEY_FINAL_TIME=0 时 dispute 无意义\n        require(address(registryContract) != address(0), \"registry not set\");\n        require(registryContract.oracleNodeIsRegistered(msg.sender), \"not registered\");\n        require(block.number < publicKeyFinal, \"key already final\");\n\n        for (uint256 i = 0; i < disputes.length; i++) {\n            require(disputes[i] != msg.sender, \"dispute already issued\");\n        }\n        disputes.push(msg.sender);\n\n        if (disputes.length >= signatureThreshold) {\n            delete publicKeyFinal;\n            delete disputes;\n            _generateKey();\n        }\n    }\n\n    // ============================================================\n    // 内部校验：G2 limbs 必须 < p，且不能全 0\n    // （不做完整 on-curve/subgroup 检查；这里只排除最常见的 precompile 失败输入）\n    // ============================================================\n    function _validateG2Limbs(uint256[4] memory pk) internal pure {\n        require(pk[0] < BN254_P, \"pk[0] >= p\");\n        require(pk[1] < BN254_P, \"pk[1] >= p\");\n        require(pk[2] < BN254_P, \"pk[2] >= p\");\n        require(pk[3] < BN254_P, \"pk[3] >= p\");\n        require(!(pk[0] == 0 && pk[1] == 0 && pk[2] == 0 && pk[3] == 0), \"pk is zero\");\n    }\n}\n\n",
  "sourcePath": "/home/st/下载/research-ioporacle-main/ioporaclecontracts/contracts/DistKeyContract.sol",
  "compiler": {
    "name": "solc",
    "version": "0.8.33+commit.64118f21.Emscripten.clang"
  },
  "schemaVersion": "3.4.16",
  "updatedAt": "2026-01-07T05:46:17.208Z",
  "networkType": "ethereum",
  "devdoc": {
    "kind": "dev",
    "methods": {},
    "version": 1
  },
  "userdoc": {
    "kind": "user",
    "methods": {},
    "version": 1
  }
}