{
  "contractName": "ECDSAOracleContract",
  "abi": [
    {
      "inputs": [
        {
          "internalType": "address",
          "name": "_registryContract",
          "type": "address"
        }
      ],
      "stateMutability": "nonpayable",
      "type": "constructor"
    },
    {
      "anonymous": false,
      "inputs": [
        {
          "indexed": true,
          "internalType": "address",
          "name": "sender",
          "type": "address"
        },
        {
          "indexed": false,
          "internalType": "uint256",
          "name": "id",
          "type": "uint256"
        },
        {
          "indexed": false,
          "internalType": "bool",
          "name": "result",
          "type": "bool"
        }
      ],
      "name": "SubmitValidationResultLog",
      "type": "event"
    },
    {
      "anonymous": false,
      "inputs": [
        {
          "indexed": true,
          "internalType": "address",
          "name": "sender",
          "type": "address"
        },
        {
          "indexed": true,
          "internalType": "uint256",
          "name": "id",
          "type": "uint256"
        },
        {
          "indexed": false,
          "internalType": "bytes32",
          "name": "hash",
          "type": "bytes32"
        },
        {
          "indexed": false,
          "internalType": "uint256",
          "name": "confirmations",
          "type": "uint256"
        }
      ],
      "name": "ValidateTransactionLog",
      "type": "event"
    },
    {
      "inputs": [],
      "name": "FEE",
      "outputs": [
        {
          "internalType": "uint256",
          "name": "",
          "type": "uint256"
        }
      ],
      "stateMutability": "view",
      "type": "function"
    },
    {
      "inputs": [
        {
          "internalType": "bytes32",
          "name": "_hash",
          "type": "bytes32"
        },
        {
          "internalType": "uint256",
          "name": "_confirmations",
          "type": "uint256"
        }
      ],
      "name": "validateTransaction",
      "outputs": [],
      "stateMutability": "payable",
      "type": "function"
    },
    {
      "inputs": [
        {
          "internalType": "uint256",
          "name": "_id",
          "type": "uint256"
        },
        {
          "internalType": "bool",
          "name": "_result",
          "type": "bool"
        },
        {
          "internalType": "bytes[]",
          "name": "_signatures",
          "type": "bytes[]"
        }
      ],
      "name": "submitValidationResult",
      "outputs": [],
      "stateMutability": "nonpayable",
      "type": "function"
    },
    {
      "inputs": [
        {
          "internalType": "uint256",
          "name": "_id",
          "type": "uint256"
        }
      ],
      "name": "findValidationResult",
      "outputs": [
        {
          "components": [
            {
              "internalType": "uint256",
              "name": "id",
              "type": "uint256"
            },
            {
              "internalType": "bool",
              "name": "result",
              "type": "bool"
            }
          ],
          "internalType": "struct ECDSAOracleContract.ValidationResult",
          "name": "",
          "type": "tuple"
        }
      ],
      "stateMutability": "view",
      "type": "function"
    },
    {
      "inputs": [
        {
          "internalType": "uint256",
          "name": "_id",
          "type": "uint256"
        }
      ],
      "name": "validationResultExists",
      "outputs": [
        {
          "internalType": "bool",
          "name": "",
          "type": "bool"
        }
      ],
      "stateMutability": "view",
      "type": "function"
    },
    {
      "inputs": [
        {
          "internalType": "uint256",
          "name": "_id",
          "type": "uint256"
        },
        {
          "internalType": "bool",
          "name": "_result",
          "type": "bool"
        }
      ],
      "name": "encodeResult",
      "outputs": [
        {
          "internalType": "bytes",
          "name": "",
          "type": "bytes"
        }
      ],
      "stateMutability": "pure",
      "type": "function"
    }
  ],
  "bytecode": "0x608034607057601f610e4138819003918201601f19168301916001600160401b03831184841017607557808492602094604052833981010312607057516001600160a01b03811690819003607057600280546001600160a01b031916919091179055604051610db5908161008c8239f35b600080fd5b634e487b7160e01b600052604160045260246000fdfe6080604052600436101561001257600080fd5b60003560e01c8063539b9747146100775780635f6c680d14610072578063953bde291461006d578063b33d96bd14610068578063c57981b5146100635763ef9151251461005e57600080fd5b610462565b610440565b6103e7565b6102fc565b610208565b3461016c57606036600319011261016c5760043560243561009781610171565b6044359067ffffffffffffffff821161016c573660238301121561016c578160040135926100c4846101d4565b926100d260405194856101b2565b8484526024602085019560051b8201019036821161016c5760248101955b828710610104576101028686866106f2565b005b863567ffffffffffffffff811161016c5782013660438201121561016c57602481013591610131836101ec565b61013e60405191826101b2565b838152366044848601011161016c5760006020858196604483970183860137830101528152019601956100f0565b600080fd5b8015150361016c57565b634e487b7160e01b600052604160045260246000fd5b6040810190811067ffffffffffffffff8211176101ad57604052565b61017b565b90601f8019910116810190811067ffffffffffffffff8211176101ad57604052565b67ffffffffffffffff81116101ad5760051b60200190565b67ffffffffffffffff81116101ad57601f01601f191660200190565b604036600319011261016c5760243560025460049060209061023a906001600160a01b03165b6001600160a01b031690565b6040516341b78c3d60e11b815292839182905afa9081156102f7576102739161026b916000916102c8575b506109c7565b3410156109e4565b61027e600054610a30565b90816000557fdb3924693edfb1380a509834c8de41c8d57794e3b056a3cc6b0bac025ba57da4604051806102c333946004358360209093929193604081019481520152565b0390a3005b6102ea915060203d6020116102f0575b6102e281836101b2565b810190610680565b38610265565b503d6102d8565b6104ed565b3461016c57602036600319011261016c576004356000602060405161032081610191565b828152015261033c816000526001602052604060002054151590565b1561039357600052600160205261038f604060002060ff60016040519261036284610191565b80548452015416151560208201526040519182918291909160208060408301948051845201511515910152565b0390f35b60405162461bcd60e51b81526020600482015260096024820152681b9bdd08199bdd5b9960ba1b6044820152606490fd5b60005b8381106103d75750506000910152565b81810151838201526020016103c7565b3461016c57604036600319011261016c5761040f60243560043561040a82610171565b610a3f565b6040805180926020825261043281518092816020860152602086860191016103c4565b601f01601f19168101030190f35b3461016c57600036600319011261016c57602060405166038d7ea4c680008152f35b3461016c57602036600319011261016c57602061048e6004356000526001602052604060002054151590565b6040519015158152f35b1561049f57565b60405162461bcd60e51b815260206004820152600e60248201526d616c72656164792065786973747360901b6044820152606490fd5b9081602091031261016c57516104ea81610171565b90565b6040513d6000823e3d90fd5b1561050057565b60405162461bcd60e51b81526020600482015260126024820152713737ba103a34329030b3b3b932b3b0ba37b960711b6044820152606490fd5b604051906105496040836101b2565b601c82527f19457468657265756d205369676e6564204d6573736167653a0a3332000000006020830152565b602092919061058b8492828151948592016103c4565b019081520190565b9061059d826101d4565b6105aa60405191826101b2565b82815280926105bb601f19916101d4565b0190602036910137565b80518210156105d95760209160051b010190565b634e487b7160e01b600052603260045260246000fd5b156105f657565b60405162461bcd60e51b81526020600482015260166024820152751dda5d1b995cdcc81b9bdd081c9959da5cdd195c995960521b6044820152606490fd5b1561063b57565b60405162461bcd60e51b815260206004820152601860248201527f7769746e65737320616c726561647920696e636c7564656400000000000000006044820152606490fd5b9081602091031261016c575190565b634e487b7160e01b600052601160045260246000fd5b90600182018092116106b357565b61068f565b156106bf57565b60405162461bcd60e51b815260206004820152600b60248201526a6e6f206d616a6f7269747960a81b6044820152606490fd5b9192909261071c610717610713856000526001602052604060002054151590565b1590565b610498565b600254610731906001600160a01b031661022e565b604051631e8f3c9560e01b815233600482015290602090829060249082905afa80156102f757610769916000916109a8575b506104f9565b610798846001610783866000526001602052604060002090565b868155019060ff801983541691151516179055565b6107a061053a565b6107c86107d66107b08787610a3f565b60208151910120604051928391602083019586610575565b03601f1981018352826101b2565b519020916107e48251610593565b9360005b83518110156108e4576108056107fe82866105c5565b5186610a62565b60025461081a906001600160a01b031661022e565b604051630a079ed560e11b81526001600160a01b03831660048201529190602090839060249082905afa9081156102f757600066038d7ea4c680008261089e83969461088f898f610875889a899a8a916108b6575b506105ef565b61088a6108856107138684610a77565b610634565b6105c5565b6001600160a01b039091169052565b6001600160a01b031682f1156102f7576001016107e8565b6108d7915060203d81116108dd575b6108cf81836101b2565b8101906104d5565b3861086f565b503d6108c5565b509392509360049150602061090361022e60025460018060a01b031690565b6040516341b78c3d60e11b815293849182905afa9182156102f7577f36cf801fa1e8739e3bf8426bba2c30eca735b965ef2ab047727480e5bf49847a9361096261095d6109849561096b94600091610989575b5060011c90565b6106a5565b905110156106b8565b6040805194855290151560208501523393918291820190565b0390a2565b6109a2915060203d6020116102f0576102e281836101b2565b38610956565b6109c1915060203d6020116108dd576108cf81836101b2565b38610763565b908166038d7ea4c68000029166038d7ea4c680008304036106b357565b156109eb57565b60405162461bcd60e51b815260206004820152601960248201527f6d73672076616c75652062656c6f7720746f74616c20666565000000000000006044820152606490fd5b60001981146106b35760010190565b90604051916020830152151560f81b6040820152602181526104ea6041826101b2565b6104ea91610a6f91610abf565b919091610b4f565b9060005b8251811015610ab7576001600160a01b03610a9682856105c5565b51166001600160a01b03831614610aaf57600101610a7b565b505050600190565b505050600090565b815160418103610aec575090610ae8916020820151906060604084015193015160001a90610cd0565b9091565b604003610b255760406020830151920151918260ff1c91601b83018093116106b357610ae8936001600160ff1b03169260ff1690610cd0565b5050600090600290565b60051115610b3957565b634e487b7160e01b600052602160045260246000fd5b610b5881610b2f565b80610b605750565b610b6981610b2f565b60018103610bb65760405162461bcd60e51b815260206004820152601860248201527f45434453413a20696e76616c6964207369676e617475726500000000000000006044820152606490fd5b610bbf81610b2f565b60028103610c0c5760405162461bcd60e51b815260206004820152601f60248201527f45434453413a20696e76616c6964207369676e6174757265206c656e677468006044820152606490fd5b610c1581610b2f565b60038103610c6d5760405162461bcd60e51b815260206004820152602260248201527f45434453413a20696e76616c6964207369676e6174757265202773272076616c604482015261756560f01b6064820152608490fd5b80610c79600492610b2f565b14610c8057565b60405162461bcd60e51b815260206004820152602260248201527f45434453413a20696e76616c6964207369676e6174757265202776272076616c604482015261756560f01b6064820152608490fd5b9291907f7fffffffffffffffffffffffffffffff5d576e7357a4501ddfe92f46681b20a08311610d735760ff16601b81141580610d68575b610d5c57602093600093604051938493608085019385528785015260408401526060830152838052039060015afa156102f7576000516001600160a01b03811615610d535790600090565b50600090600190565b50505050600090600490565b50601c811415610d08565b5050505060009060039056fea2646970667358221220605a94eae0e3e7b030926d76e58faed04acdb0d65b51dbb96df02901953c629464736f6c63430008210033",
  "immutableReferences": {},
  "source": "// SPDX-License-Identifier: MIT\npragma solidity ^0.8.0;\n\nimport \"../RegistryContract.sol\";\nimport \"@openzeppelin/contracts/utils/cryptography/ECDSA.sol\";\n\ncontract ECDSAOracleContract {\n    using ECDSA for bytes32;\n\n    struct ValidationResult {\n        uint256 id;\n        bool result;\n    }\n\n    uint256 public constant FEE = 0.001 ether;\n\n    uint256 private requestCounter;\n\n    mapping(uint256 => ValidationResult) private validationResults;\n\n    event ValidateTransactionLog(\n        address indexed sender,\n        uint256 indexed id,\n        bytes32 hash,\n        uint256 confirmations\n    );\n    event SubmitValidationResultLog(\n        address indexed sender,\n        uint256 id,\n        bool result\n    );\n\n    RegistryContract private registryContract;\n\n    constructor(address _registryContract) {\n        registryContract = RegistryContract(_registryContract);\n    }\n\n    function validateTransaction(bytes32 _hash, uint256 _confirmations)\n        external\n        payable\n    {\n        require(\n            msg.value >= FEE * registryContract.countOracleNodes(),\n            \"msg value below total fee\"\n        );\n        emit ValidateTransactionLog(\n            msg.sender,\n            ++requestCounter,\n            _hash,\n            _confirmations\n        );\n    }\n\n    function submitValidationResult(\n        uint256 _id,\n        bool _result,\n        bytes[] memory _signatures\n    ) public {\n        require(!validationResultExists(_id), \"already exists\");\n        require(\n            registryContract.isAggregator(msg.sender),\n            \"not the aggregator\"\n        );\n\n        ValidationResult storage validationResult = validationResults[_id];\n        validationResult.id = _id;\n        validationResult.result = _result;\n\n        bytes memory prefix = \"\\x19Ethereum Signed Message:\\n32\";\n        bytes32 result = keccak256(encodeResult(_id, _result));\n        bytes32 hash = keccak256(abi.encodePacked(prefix, result));\n\n        address[] memory witnesses = new address[](_signatures.length);\n        for (uint256 i = 0; i < _signatures.length; i++) {\n            address witness = hash.recover(_signatures[i]);\n            require(\n                registryContract.oracleNodeIsRegistered(witness),\n                \"witness not registered\"\n            );\n            require(\n                !containsWitness(witnesses, witness),\n                \"witness already included\"\n            );\n            witnesses[i] = witness;\n            payable(address(uint160(witness))).transfer(FEE);\n        }\n\n        uint256 majority = registryContract.countOracleNodes() / 2 + 1;\n        require(witnesses.length >= majority, \"no majority\");\n\n        emit SubmitValidationResultLog(msg.sender, _id, _result);\n    }\n\n    function containsWitness(address[] memory _witnesses, address _witness)\n        private\n        pure\n        returns (bool)\n    {\n        for (uint256 i = 0; i < _witnesses.length; i++) {\n            if (_witnesses[i] == _witness) {\n                return true;\n            }\n        }\n        return false;\n    }\n\n    function findValidationResult(uint256 _id)\n        public\n        view\n        returns (ValidationResult memory)\n    {\n        require(validationResultExists(_id), \"not found\");\n        return validationResults[_id];\n    }\n\n    function validationResultExists(uint256 _id) public view returns (bool) {\n        return validationResults[_id].id != 0;\n    }\n\n    function encodeResult(uint256 _id, bool _result)\n        public\n        pure\n        returns (bytes memory)\n    {\n        return abi.encodePacked(_id, _result);\n    }\n}\n",
  "sourcePath": "/home/st/下载/research-ioporacle-main/ioporaclecontracts/contracts/eval/ECDSAOracleContract.sol",
  "compiler": {
    "name": "solc",
    "version": "0.8.33+commit.64118f21.Emscripten.clang"
  },
  "schemaVersion": "3.4.16",
  "updatedAt": "2025-12-27T06:58:48.315Z",
  "devdoc": {
    "kind": "dev",
    "methods": {},
    "version": 1
  },
  "userdoc": {
    "kind": "user",
    "methods": {},
    "version": 1
  }
}