{
  "contractName": "OnChainOracleContract",
  "abi": [
    {
      "inputs": [
        {
          "internalType": "address",
          "name": "_registryContract",
          "type": "address"
        }
      ],
      "stateMutability": "nonpayable",
      "type": "constructor"
    },
    {
      "anonymous": false,
      "inputs": [
        {
          "indexed": true,
          "internalType": "address",
          "name": "sender",
          "type": "address"
        },
        {
          "indexed": false,
          "internalType": "uint256",
          "name": "id",
          "type": "uint256"
        },
        {
          "indexed": false,
          "internalType": "bool",
          "name": "result",
          "type": "bool"
        }
      ],
      "name": "SubmitValidationResultLog",
      "type": "event"
    },
    {
      "anonymous": false,
      "inputs": [
        {
          "indexed": true,
          "internalType": "address",
          "name": "sender",
          "type": "address"
        },
        {
          "indexed": true,
          "internalType": "uint256",
          "name": "id",
          "type": "uint256"
        },
        {
          "indexed": false,
          "internalType": "bytes32",
          "name": "hash",
          "type": "bytes32"
        },
        {
          "indexed": false,
          "internalType": "uint256",
          "name": "confirmations",
          "type": "uint256"
        }
      ],
      "name": "ValidateTransactionLog",
      "type": "event"
    },
    {
      "inputs": [],
      "name": "FEE",
      "outputs": [
        {
          "internalType": "uint256",
          "name": "",
          "type": "uint256"
        }
      ],
      "stateMutability": "view",
      "type": "function"
    },
    {
      "inputs": [
        {
          "internalType": "bytes32",
          "name": "_hash",
          "type": "bytes32"
        },
        {
          "internalType": "uint256",
          "name": "_confirmations",
          "type": "uint256"
        }
      ],
      "name": "validateTransaction",
      "outputs": [],
      "stateMutability": "payable",
      "type": "function"
    },
    {
      "inputs": [
        {
          "internalType": "uint256",
          "name": "_id",
          "type": "uint256"
        },
        {
          "internalType": "bool",
          "name": "_result",
          "type": "bool"
        }
      ],
      "name": "submitValidationResult",
      "outputs": [],
      "stateMutability": "nonpayable",
      "type": "function"
    },
    {
      "inputs": [
        {
          "internalType": "uint256",
          "name": "_id",
          "type": "uint256"
        }
      ],
      "name": "findValidationResult",
      "outputs": [
        {
          "components": [
            {
              "internalType": "uint256",
              "name": "id",
              "type": "uint256"
            },
            {
              "internalType": "bool",
              "name": "result",
              "type": "bool"
            }
          ],
          "internalType": "struct OnChainOracleContract.ValidationResult",
          "name": "",
          "type": "tuple"
        }
      ],
      "stateMutability": "view",
      "type": "function"
    },
    {
      "inputs": [
        {
          "internalType": "uint256",
          "name": "_id",
          "type": "uint256"
        }
      ],
      "name": "validationResultExists",
      "outputs": [
        {
          "internalType": "bool",
          "name": "",
          "type": "bool"
        }
      ],
      "stateMutability": "view",
      "type": "function"
    }
  ],
  "bytecode": "0x608034607057601f61067938819003918201601f19168301916001600160401b03831184841017607557808492602094604052833981010312607057516001600160a01b03811690819003607057600380546001600160a01b0319169190911790556040516105ed908161008c8239f35b600080fd5b634e487b7160e01b600052604160045260246000fdfe608080604052600436101561001357600080fd5b60003560e01c9081635f6c680d1461042d57508063953bde2914610379578063c57981b514610358578063eb9e0b14146100915763ef9151251461005657600080fd5b3461008c57602036600319011261008c5760206100826004356000526002602052604060002054151590565b6040519015158152f35b600080fd5b3461008c57604036600319011261008c5760043560243580151580910361008c57600354604051630a079ed560e11b815233600482015290602090829060249082906001600160a01b03165afa90811561024257600091610316575b50156102e05781600052600160205260406000208160005260205260406000208054680100000000000000008110156102ca5761012f91600182018155610589565b81546001600160a01b03600392831b81811b199092163390921b91909117909255546040516341b78c3d60e11b81529160209183916004918391165afa90811561024257600091610298575b5060011c600181018091116102825782600052600160205260406000208260005260205260406000205410156101ad57005b816000526002602052600160406000208381550160ff1981541660ff831617905560005b82600052600160205260406000208260005260205260406000205481101561024e5782600052600160205260406000208260005260205260008080806509184e72a0006102218660408420610589565b905460039190911b1c6001600160a01b031682f115610242576001016101d1565b6040513d6000823e3d90fd5b5060405191825260208201527f36cf801fa1e8739e3bf8426bba2c30eca735b965ef2ab047727480e5bf49847a60403392a2005b634e487b7160e01b600052601160045260246000fd5b90506020813d6020116102c2575b816102b360209383610567565b8101031261008c57518361017b565b3d91506102a6565b634e487b7160e01b600052604160045260246000fd5b60405162461bcd60e51b815260206004820152600e60248201526d1b9bdd081c9959da5cdd195c995960921b6044820152606490fd5b6020813d602011610350575b8161032f60209383610567565b8101031261034c57519081151582036103495750836100ed565b80fd5b5080fd5b3d9150610322565b3461008c57600036600319011261008c5760206040516509184e72a0008152f35b3461008c57602036600319011261008c576004356000602060405161039d8161054b565b82815201526103b9816000526002602052604060002054151590565b156103fc57600052600260205260408060002081516103d78161054b565b602060ff60018454948585520154169101901515815282519182525115156020820152f35b60405162461bcd60e51b81526020600482015260096024820152681b9bdd08199bdd5b9960ba1b6044820152606490fd5b604036600319011261008c576003546341b78c3d60e11b8252602090829060049082906001600160a01b03165afa90811561024257600091610519575b50806509184e72a00002906509184e72a0008204036102825734106104d45760005460001981146102825760010180600055604051600435815260243560208201527fdb3924693edfb1380a509834c8de41c8d57794e3b056a3cc6b0bac025ba57da460403392a3005b60405162461bcd60e51b815260206004820152601960248201527f6d73672076616c75652062656c6f7720746f74616c20666565000000000000006044820152606490fd5b906020823d602011610543575b8161053360209383610567565b810103126103495750518161046a565b3d9150610526565b6040810190811067ffffffffffffffff8211176102ca57604052565b90601f8019910116810190811067ffffffffffffffff8211176102ca57604052565b80548210156105a15760005260206000200190600090565b634e487b7160e01b600052603260045260246000fdfea264697066735822122096a557e9e35e50b16fcf04642566e50d4ff895a89283b089c82f9119726348f964736f6c63430008210033",
  "immutableReferences": {},
  "source": "// SPDX-License-Identifier: MIT\npragma solidity ^0.8.0;\n\nimport \"../RegistryContract.sol\";\n\ncontract OnChainOracleContract {\n    struct ValidationResult {\n        uint256 id;\n        bool result;\n    }\n\n    uint256 public constant FEE = 0.00001 ether;\n\n    uint256 private requestCounter;\n\n    mapping(uint256 => mapping(bool => address[])) private votes;\n\n    mapping(uint256 => ValidationResult) private validationResults;\n\n    event ValidateTransactionLog(\n        address indexed sender,\n        uint256 indexed id,\n        bytes32 hash,\n        uint256 confirmations\n    );\n    event SubmitValidationResultLog(\n        address indexed sender,\n        uint256 id,\n        bool result\n    );\n\n    RegistryContract private registryContract;\n\n    constructor(address _registryContract) {\n        registryContract = RegistryContract(_registryContract);\n    }\n\n    function validateTransaction(bytes32 _hash, uint256 _confirmations)\n        external\n        payable\n    {\n        require(\n            msg.value >= FEE * registryContract.countOracleNodes(),\n            \"msg value below total fee\"\n        );\n        emit ValidateTransactionLog(\n            msg.sender,\n            ++requestCounter,\n            _hash,\n            _confirmations\n        );\n    }\n\n    function submitValidationResult(uint256 _id, bool _result) public {\n        require(\n            registryContract.oracleNodeIsRegistered(msg.sender),\n            \"not registered\"\n        );\n\n        votes[_id][_result].push(msg.sender);\n\n        uint256 majority = registryContract.countOracleNodes() / 2 + 1;\n        if (votes[_id][_result].length >= majority) {\n            ValidationResult storage validationResult = validationResults[_id];\n            validationResult.id = _id;\n            validationResult.result = _result;\n\n            for (uint256 i = 0; i < votes[_id][_result].length; i++) {\n                payable(address(uint160(votes[_id][_result][i]))).transfer(FEE);\n            }\n\n            emit SubmitValidationResultLog(msg.sender, _id, _result);\n        }\n    }\n\n    function findValidationResult(uint256 _id)\n        public\n        view\n        returns (ValidationResult memory)\n    {\n        require(validationResultExists(_id), \"not found\");\n        return validationResults[_id];\n    }\n\n    function validationResultExists(uint256 _id) public view returns (bool) {\n        return validationResults[_id].id != 0;\n    }\n}\n",
  "sourcePath": "/home/st/下载/research-ioporacle-main/ioporaclecontracts/contracts/eval/OnChainOracleContract.sol",
  "compiler": {
    "name": "solc",
    "version": "0.8.33+commit.64118f21.Emscripten.clang"
  },
  "schemaVersion": "3.4.16",
  "updatedAt": "2025-12-27T06:58:48.328Z",
  "devdoc": {
    "kind": "dev",
    "methods": {},
    "version": 1
  },
  "userdoc": {
    "kind": "user",
    "methods": {},
    "version": 1
  }
}