{
  "contractName": "OracleContract",
  "abi": [
    {
      "inputs": [
        {
          "internalType": "address",
          "name": "_registryContract",
          "type": "address"
        },
        {
          "internalType": "address",
          "name": "_distKeyContract",
          "type": "address"
        }
      ],
      "stateMutability": "nonpayable",
      "type": "constructor"
    },
    {
      "anonymous": false,
      "inputs": [
        {
          "indexed": false,
          "internalType": "bool",
          "name": "allowThreshold",
          "type": "bool"
        },
        {
          "indexed": false,
          "internalType": "bool",
          "name": "allowMultisig",
          "type": "bool"
        },
        {
          "indexed": false,
          "internalType": "bool",
          "name": "allowIBOS",
          "type": "bool"
        }
      ],
      "name": "AllowedModesChanged",
      "type": "event"
    },
    {
      "anonymous": false,
      "inputs": [
        {
          "indexed": false,
          "internalType": "uint256",
          "name": "oldM",
          "type": "uint256"
        },
        {
          "indexed": false,
          "internalType": "uint256",
          "name": "newM",
          "type": "uint256"
        }
      ],
      "name": "MultisigRequiredChanged",
      "type": "event"
    },
    {
      "anonymous": false,
      "inputs": [
        {
          "indexed": false,
          "internalType": "enum OracleContract.ValidationType",
          "name": "typ",
          "type": "uint8"
        },
        {
          "indexed": true,
          "internalType": "address",
          "name": "from",
          "type": "address"
        },
        {
          "indexed": false,
          "internalType": "bytes32",
          "name": "hash",
          "type": "bytes32"
        }
      ],
      "name": "ValidationRequest",
      "type": "event"
    },
    {
      "anonymous": false,
      "inputs": [
        {
          "indexed": false,
          "internalType": "enum OracleContract.ValidationType",
          "name": "typ",
          "type": "uint8"
        },
        {
          "indexed": true,
          "internalType": "address",
          "name": "aggregator",
          "type": "address"
        },
        {
          "indexed": false,
          "internalType": "bytes32",
          "name": "hash",
          "type": "bytes32"
        },
        {
          "indexed": false,
          "internalType": "bool",
          "name": "valid",
          "type": "bool"
        },
        {
          "indexed": false,
          "internalType": "uint256",
          "name": "fee",
          "type": "uint256"
        }
      ],
      "name": "ValidationResponse",
      "type": "event"
    },
    {
      "inputs": [],
      "name": "BASE_FEE",
      "outputs": [
        {
          "internalType": "uint256",
          "name": "",
          "type": "uint256"
        }
      ],
      "stateMutability": "view",
      "type": "function",
      "constant": true
    },
    {
      "inputs": [],
      "name": "TOTAL_FEE",
      "outputs": [
        {
          "internalType": "uint256",
          "name": "",
          "type": "uint256"
        }
      ],
      "stateMutability": "view",
      "type": "function",
      "constant": true
    },
    {
      "inputs": [],
      "name": "VALIDATOR_FEE",
      "outputs": [
        {
          "internalType": "uint256",
          "name": "",
          "type": "uint256"
        }
      ],
      "stateMutability": "view",
      "type": "function",
      "constant": true
    },
    {
      "inputs": [],
      "name": "admin",
      "outputs": [
        {
          "internalType": "address",
          "name": "",
          "type": "address"
        }
      ],
      "stateMutability": "view",
      "type": "function",
      "constant": true
    },
    {
      "inputs": [],
      "name": "allowIBOS",
      "outputs": [
        {
          "internalType": "bool",
          "name": "",
          "type": "bool"
        }
      ],
      "stateMutability": "view",
      "type": "function",
      "constant": true
    },
    {
      "inputs": [],
      "name": "allowMultisig",
      "outputs": [
        {
          "internalType": "bool",
          "name": "",
          "type": "bool"
        }
      ],
      "stateMutability": "view",
      "type": "function",
      "constant": true
    },
    {
      "inputs": [],
      "name": "allowThreshold",
      "outputs": [
        {
          "internalType": "bool",
          "name": "",
          "type": "bool"
        }
      ],
      "stateMutability": "view",
      "type": "function",
      "constant": true
    },
    {
      "inputs": [],
      "name": "multisigRequired",
      "outputs": [
        {
          "internalType": "uint256",
          "name": "",
          "type": "uint256"
        }
      ],
      "stateMutability": "view",
      "type": "function",
      "constant": true
    },
    {
      "inputs": [
        {
          "internalType": "uint256",
          "name": "",
          "type": "uint256"
        }
      ],
      "name": "usedNonce",
      "outputs": [
        {
          "internalType": "bool",
          "name": "",
          "type": "bool"
        }
      ],
      "stateMutability": "view",
      "type": "function",
      "constant": true
    },
    {
      "stateMutability": "payable",
      "type": "receive",
      "payable": true
    },
    {
      "inputs": [
        {
          "internalType": "uint256",
          "name": "m",
          "type": "uint256"
        }
      ],
      "name": "setMultisigRequired",
      "outputs": [],
      "stateMutability": "nonpayable",
      "type": "function"
    },
    {
      "inputs": [
        {
          "internalType": "bool",
          "name": "tss",
          "type": "bool"
        },
        {
          "internalType": "bool",
          "name": "ms",
          "type": "bool"
        },
        {
          "internalType": "bool",
          "name": "ibos",
          "type": "bool"
        }
      ],
      "name": "setAllowedModes",
      "outputs": [],
      "stateMutability": "nonpayable",
      "type": "function"
    },
    {
      "inputs": [
        {
          "internalType": "bytes32",
          "name": "_hash",
          "type": "bytes32"
        }
      ],
      "name": "validateBlock",
      "outputs": [],
      "stateMutability": "payable",
      "type": "function",
      "payable": true
    },
    {
      "inputs": [
        {
          "internalType": "bytes32",
          "name": "_hash",
          "type": "bytes32"
        }
      ],
      "name": "validateTransaction",
      "outputs": [],
      "stateMutability": "payable",
      "type": "function",
      "payable": true
    },
    {
      "inputs": [
        {
          "internalType": "bytes32",
          "name": "_hash",
          "type": "bytes32"
        },
        {
          "internalType": "bool",
          "name": "_result",
          "type": "bool"
        },
        {
          "internalType": "bytes[]",
          "name": "identityBytes",
          "type": "bytes[]"
        },
        {
          "components": [
            {
              "internalType": "uint256[2]",
              "name": "S",
              "type": "uint256[2]"
            },
            {
              "internalType": "uint256[4]",
              "name": "R",
              "type": "uint256[4]"
            }
          ],
          "internalType": "struct OracleContract.IBOSSignature[]",
          "name": "signatures",
          "type": "tuple[]"
        },
        {
          "internalType": "uint256",
          "name": "nonce",
          "type": "uint256"
        }
      ],
      "name": "submitBlockValidationIBOS",
      "outputs": [],
      "stateMutability": "nonpayable",
      "type": "function"
    },
    {
      "inputs": [
        {
          "internalType": "bytes32",
          "name": "_hash",
          "type": "bytes32"
        },
        {
          "internalType": "bool",
          "name": "_result",
          "type": "bool"
        },
        {
          "internalType": "bytes[]",
          "name": "identityBytes",
          "type": "bytes[]"
        },
        {
          "components": [
            {
              "internalType": "uint256[2]",
              "name": "S",
              "type": "uint256[2]"
            },
            {
              "internalType": "uint256[4]",
              "name": "R",
              "type": "uint256[4]"
            }
          ],
          "internalType": "struct OracleContract.IBOSSignature[]",
          "name": "signatures",
          "type": "tuple[]"
        },
        {
          "internalType": "uint256",
          "name": "nonce",
          "type": "uint256"
        }
      ],
      "name": "submitTransactionValidationIBOS",
      "outputs": [],
      "stateMutability": "nonpayable",
      "type": "function"
    },
    {
      "inputs": [
        {
          "internalType": "bytes32",
          "name": "_hash",
          "type": "bytes32"
        },
        {
          "internalType": "bool",
          "name": "_result",
          "type": "bool"
        },
        {
          "internalType": "uint8",
          "name": "mode",
          "type": "uint8"
        },
        {
          "internalType": "uint256[2]",
          "name": "tssSig",
          "type": "uint256[2]"
        },
        {
          "internalType": "bytes[]",
          "name": "msSigs",
          "type": "bytes[]"
        },
        {
          "internalType": "uint256",
          "name": "nonce",
          "type": "uint256"
        }
      ],
      "name": "submitBlockValidationHybrid",
      "outputs": [],
      "stateMutability": "nonpayable",
      "type": "function"
    },
    {
      "inputs": [
        {
          "internalType": "bytes32",
          "name": "_hash",
          "type": "bytes32"
        },
        {
          "internalType": "bool",
          "name": "_result",
          "type": "bool"
        },
        {
          "internalType": "uint8",
          "name": "mode",
          "type": "uint8"
        },
        {
          "internalType": "uint256[2]",
          "name": "tssSig",
          "type": "uint256[2]"
        },
        {
          "internalType": "bytes[]",
          "name": "msSigs",
          "type": "bytes[]"
        },
        {
          "internalType": "uint256",
          "name": "nonce",
          "type": "uint256"
        }
      ],
      "name": "submitTransactionValidationHybrid",
      "outputs": [],
      "stateMutability": "nonpayable",
      "type": "function"
    },
    {
      "inputs": [
        {
          "internalType": "uint256",
          "name": "_stake",
          "type": "uint256"
        },
        {
          "internalType": "uint256",
          "name": "_seed",
          "type": "uint256"
        }
      ],
      "name": "isValidationFeeReceiver",
      "outputs": [
        {
          "internalType": "bool",
          "name": "",
          "type": "bool"
        }
      ],
      "stateMutability": "pure",
      "type": "function",
      "constant": true
    },
    {
      "inputs": [
        {
          "internalType": "bytes32",
          "name": "",
          "type": "bytes32"
        },
        {
          "internalType": "bool",
          "name": "",
          "type": "bool"
        },
        {
          "internalType": "uint256[2]",
          "name": "",
          "type": "uint256[2]"
        }
      ],
      "name": "submitBlockValidationResult",
      "outputs": [],
      "stateMutability": "pure",
      "type": "function",
      "constant": true
    },
    {
      "inputs": [
        {
          "internalType": "bytes32",
          "name": "",
          "type": "bytes32"
        },
        {
          "internalType": "bool",
          "name": "",
          "type": "bool"
        },
        {
          "internalType": "uint256[2]",
          "name": "",
          "type": "uint256[2]"
        }
      ],
      "name": "submitTransactionValidationResult",
      "outputs": [],
      "stateMutability": "pure",
      "type": "function",
      "constant": true
    },
    {
      "inputs": [
        {
          "internalType": "bytes32",
          "name": "_hash",
          "type": "bytes32"
        }
      ],
      "name": "findBlockValidationResult",
      "outputs": [
        {
          "internalType": "bool",
          "name": "",
          "type": "bool"
        }
      ],
      "stateMutability": "view",
      "type": "function",
      "constant": true
    },
    {
      "inputs": [
        {
          "internalType": "bytes32",
          "name": "_hash",
          "type": "bytes32"
        }
      ],
      "name": "findTransactionValidationResult",
      "outputs": [
        {
          "internalType": "bool",
          "name": "",
          "type": "bool"
        }
      ],
      "stateMutability": "view",
      "type": "function",
      "constant": true
    }
  ],
  "bytecode": "0x60803460ac57601f6110f038819003918201601f19168301916001600160401b0383118484101760b157808492604094855283398101031260ac57604b602060458360c7565b920160c7565b60038055600480546201010162ffffff1991909116179055600680546001600160a01b03199081166001600160a01b039485161790915560078054821693909216929092179055600880549091163317905560405161101590816100db8239f35b600080fd5b634e487b7160e01b600052604160045260246000fd5b51906001600160a01b038216820360ac5756fe608080604052600436101561001d575b50361561001b57600080fd5b005b60003560e01c9081631d41b6e914610a845750806325f08549146109455780633205772a146109f3578063344829c81461099d5780633d18651e1461097b5780633d27ef971461094a5780633dd142791461094557806343434590146109145780634a2a8b0d1461082a57806363db7eae146108075780637241784c146107e95780637da83e2b146107c857806396e456d1146106865780639723fb6d14610655578063a47e5c9c14610524578063b6fdebe7146102c0578063bacc4e541461029a578063dd5e22df14610244578063e6f25ccc14610198578063f5ba1d3d1461016d578063f851a440146101445763ff7b16d21461011c573861000f565b3461013f57600036600319011261013f57602060ff600454166040519015158152f35b600080fd5b3461013f57600036600319011261013f576008546040516001600160a01b039091168152602090f35b3461013f57604036600319011261013f57602061018e602435600435610d62565b6040519015158152f35b3461013f57606036600319011261013f5760043580151580910361013f5760243580151580910361013f576044359182151580930361013f577f5796377bd9a4625608bba8c12a69ccd67ec138ddd6ad2e4805beace042f4bf6b9260609261020b60018060a01b03600854163314610c19565b60045462ff00008360101b169060ff85169062ffffff19161761ff008360081b16171760045560405192835260208301526040820152a1005b602036600319011261013f576102636603e871b540c000341015610c51565b6040516001815260043560208201527f3706933cbfd265e74e347f4c40263753cecc292080a1bfd0e9fd6ce994c0839660403392a2005b3461013f57600036600319011261013f57602060ff60045460081c166040519015158152f35b3461013f576102ce36610b8d565b949350909160045460ff60009160101c16156104ef5750600094808652600560205261030160ff60408820541615610da3565b8552600560205260408520805460ff191660011790558181036104b8571561048057600654604051630a079ed560e11b815233600482015290602090829060249082906001600160a01b03165afa9081156104755790610368918691610446575b50610e2c565b15801593818561041e575b50508460005260016020526103988360406000209060ff801983541691151516179055565b6000936103e7575b50506103ba600080516020610fc083398151915292610ef4565b6040519160808301946103ce846002610c92565b60208401521515604083015260608201528033930390a2005b909250610408576103ba600080516020610fc08339815191529235926103a0565b634e487b7160e01b600052603260045260246000fd5b6104325761042c8335610fa8565b81610373565b634e487b7160e01b81526032600452602490fd5b610468915060203d60201161046e575b6104608183610ddc565b810190610e14565b87610362565b503d610456565b6040513d87823e3d90fd5b60405162461bcd60e51b815260206004820152601060248201526f656d707479207369676e61747572657360801b6044820152606490fd5b60405162461bcd60e51b815260206004820152600f60248201526e0d8cadccee8d040dad2e6dac2e8c6d608b1b6044820152606490fd5b60405162461bcd60e51b815260206004820152600d60248201526c125093d4c8191a5cd8589b1959609a1b6044820152606490fd5b3461013f57602461053436610b30565b92935050508060009593949552600560205261055860ff6040600020541615610da3565b60005260056020526040600020600160ff19825416179055602060018060a01b036006541660405193848092630a079ed560e11b82523360048301525afa918215610649576105b8926105b29160009161062a5750610e2c565b35610e70565b906105c282610f10565b8260005260006020526105e58160406000209060ff801983541691151516179055565b60405192600184526020840152151560408301526060820152600080516020610fc083398151915260803392a2005b634e487b7160e01b600052602160045260246000fd5b610643915060203d60201161046e576104608183610ddc565b86610362565b6040513d6000823e3d90fd5b3461013f57602036600319011261013f576004356000526005602052602060ff604060002054166040519015158152f35b3461013f5761069436610b8d565b949350909160045460ff60009160101c16156104ef575060009480865260056020526106c760ff60408820541615610da3565b8552600560205260408520805460ff191660011790558181036104b8571561048057600654604051630a079ed560e11b815233600482015290602090829060249082906001600160a01b03165afa908115610475579061072d9186916104465750610e2c565b1580159381856107b4575b505084600052600060205261075d8360406000209060ff801983541691151516179055565b600093610793575b505061077f600080516020610fc083398151915292610ef4565b6040519160808301946103ce846001610c92565b9092506104085761077f600080516020610fc0833981519152923592610765565b610432576107c28335610fa8565b81610738565b3461013f57600036600319011261013f576020604051655af3107a40008152f35b3461013f57600036600319011261013f576020600354604051908152f35b3461013f57600036600319011261013f5760206603e871b540c000604051908152f35b3461013f57602461083a36610b30565b92935050508060009593949552600560205261085e60ff6040600020541615610da3565b60005260056020526040600020600160ff19825416179055602060018060a01b036006541660405193848092630a079ed560e11b82523360048301525afa918215610649576108b8926105b29160009161062a5750610e2c565b906108c282610f10565b8260005260016020526108e58160406000209060ff801983541691151516179055565b60405192600284526020840152151560408301526060820152600080516020610fc083398151915260803392a2005b3461013f57602036600319011261013f576004356000526001602052602060ff604060002054166040519015158152f35b610aa7565b3461013f57602036600319011261013f576004356000526000602052602060ff604060002054166040519015158152f35b3461013f57600036600319011261013f57602060405166038d7ea4c680008152f35b602036600319011261013f576109bc6603e871b540c000341015610c51565b6040516002815260043560208201527f3706933cbfd265e74e347f4c40263753cecc292080a1bfd0e9fd6ce994c0839660403392a2005b3461013f57602036600319011261013f57600435610a1c60018060a01b03600854163314610c19565b8015610a59577f10855fc9fd9027e533ded2b6cb96fbfcdfd4b5d0d80292acf678b66781e9363c60406003548151908152836020820152a1600355005b60405162461bcd60e51b815260206004820152600360248201526206d3d360ec1b6044820152606490fd5b3461013f57600036600319011261013f5760209060ff60045460101c1615158152f35b3461013f57608036600319011261013f57602435801515810361013f57503660841161013f5760405162461bcd60e51b815260206004820152600a60248201526911195c1c9958d85d195960b21b6044820152606490fd5b9181601f8401121561013f5782359167ffffffffffffffff831161013f576020808501948460051b01011161013f57565b60e060031982011261013f5760043591602435801515810361013f579160443560ff8116810361013f57918160a41161013f5760649160a4359067ffffffffffffffff821161013f57610b8591600401610aff565b909160c43590565b9060a060031983011261013f5760043591602435801515810361013f579160443567ffffffffffffffff811161013f5782610bca91600401610aff565b9290929160643567ffffffffffffffff811161013f578260238201121561013f5780600401359267ffffffffffffffff841161013f57602460c085028301011161013f57602401919060843590565b15610c2057565b60405162461bcd60e51b81526020600482015260096024820152683737ba1030b236b4b760b91b6044820152606490fd5b15610c5857565b60405162461bcd60e51b81526020600482015260126024820152711d1bdbc819995dc819995948185b5bdd5b9d60721b6044820152606490fd5b9060038210156106145752565b6000908015610d5b578080600114610d5357600214610d4b5760016101338210166001600b83101617610d3d579060019060025b60018111610d00575082600019048211610cec57500290565b634e487b7160e01b81526011600452602490fd5b9280600019048111610d295760018416610d20575b80029260011c610cd3565b80920291610d15565b634e487b7160e01b82526011600452602482fd5b6002900a919080610cec5750565b506004919050565b505050600190565b5050600090565b670de0b6b3a7640000610d759104610c9f565b8015610d5b576103e8048015610d8d57600191061490565b634e487b7160e01b600052601260045260246000fd5b15610daa57565b60405162461bcd60e51b815260206004820152600a6024820152691b9bdb98d9481d5cd95960b21b6044820152606490fd5b90601f8019910116810190811067ffffffffffffffff821117610dfe57604052565b634e487b7160e01b600052604160045260246000fd5b9081602091031261013f5751801515810361013f5790565b15610e3357565b60405162461bcd60e51b815260206004820152601560248201527414d95b99195c881b9bdd081c9959da5cdd195c9959605a1b6044820152606490fd5b610e839068056bc75e2d63100000610d62565b610eba576002546000198114610ea45760010160025566038d7ea4c6800090565b634e487b7160e01b600052601160045260246000fd5b60025480655af3107a40000290655af3107a4000820403610ea45766038d7ea4c68000018066038d7ea4c6800011610ea457600060025590565b610e8390678ac7230489e80000610d62565b90610e8391610d62565b60008080610f28819468056bc75e2d63100000610f06565b335af13d15610fa3573d67ffffffffffffffff8111610dfe5760405190610f59601f8201601f191660200183610ddc565b8152600060203d92013e5b15610f6b57565b60405162461bcd60e51b815260206004820152601060248201526f2a3930b739b332b9103330b4b632b21760811b6044820152606490fd5b610f64565b60008080610f288194678ac7230489e80000610f0656fe9739d27192db56a131c86c297677afccac89aa4f39cbc5bcd62a8d10ce559675a26469706673582212204923ee89518352e957c40f6fcb6b6bcb7f4f90cb70e55b1d8650df705ad73c9064736f6c63430008210033",
  "immutableReferences": {},
  "source": "// SPDX-License-Identifier: MIT\npragma solidity ^0.8.0;\n\nimport \"./RegistryContract.sol\";\nimport \"./DistKeyContract.sol\";\nimport \"@openzeppelin/contracts/utils/cryptography/ECDSA.sol\";\n\ncontract OracleContract {\n    using ECDSA for bytes32;\n\n    uint256 public constant BASE_FEE = 0.001 ether;\n    uint256 public constant VALIDATOR_FEE = 0.0001 ether;\n    uint256 public constant TOTAL_FEE = BASE_FEE + VALIDATOR_FEE;\n\n    mapping(bytes32 => bool) private blockValidationResults;\n    mapping(bytes32 => bool) private txValidationResults;\n    uint256 private requestsSinceLastPayout;\n\n    enum ValidationType { UNKNOWN, BLOCK, TRANSACTION }\n    enum SignMode { THRESHOLD, MULTISIG, IBOS }\n    uint256 public multisigRequired = 3;\n    bool public allowThreshold = true;\n    bool public allowMultisig = true;\n    bool public allowIBOS = true;\n\n    mapping(uint256 => bool) public usedNonce;\n\n    struct IBOSSignature {\n        uint256[2] S;\n        uint256[4] R;\n    }\n\n    event ValidationRequest(ValidationType typ, address indexed from, bytes32 hash);\n    event ValidationResponse(ValidationType typ, address indexed aggregator, bytes32 hash, bool valid, uint256 fee);\n    event MultisigRequiredChanged(uint256 oldM, uint256 newM);\n    event AllowedModesChanged(bool allowThreshold, bool allowMultisig, bool allowIBOS);\n\n    RegistryContract private registryContract;\n    DistKeyContract private distKeyContract;\n    address public admin;\n\n    modifier onlyAdmin() {\n        require(msg.sender == admin, \"not admin\");\n        _;\n    }\n\n    constructor(address _registryContract, address _distKeyContract) {\n        registryContract = RegistryContract(_registryContract);\n        distKeyContract = DistKeyContract(_distKeyContract);\n        admin = msg.sender;\n    }\n\n    function setMultisigRequired(uint256 m) external onlyAdmin {\n        require(m > 0, \"m=0\");\n        emit MultisigRequiredChanged(multisigRequired, m);\n        multisigRequired = m;\n    }\n\n    function setAllowedModes(bool tss, bool ms, bool ibos) external onlyAdmin {\n        allowThreshold = tss;\n        allowMultisig = ms;\n        allowIBOS = ibos;\n        emit AllowedModesChanged(tss, ms, ibos);\n    }\n\n    modifier minFee(uint _min) {\n        require(msg.value >= _min, \"too few fee amount\");\n        _;\n    }\n\n    function validateBlock(bytes32 _hash) external payable minFee(TOTAL_FEE) {\n        emit ValidationRequest(ValidationType.BLOCK, msg.sender, _hash);\n    }\n\n    function validateTransaction(bytes32 _hash) external payable minFee(TOTAL_FEE) {\n        emit ValidationRequest(ValidationType.TRANSACTION, msg.sender, _hash);\n    }\n\n    function submitBlockValidationIBOS(\n        bytes32 _hash, bool _result, bytes[] calldata identityBytes,\n        IBOSSignature[] calldata signatures, uint256 nonce\n    ) external {\n        _submitIBOS(ValidationType.BLOCK, _hash, _result, identityBytes, signatures, nonce);\n    }\n\n    function submitTransactionValidationIBOS(\n        bytes32 _hash, bool _result, bytes[] calldata identityBytes,\n        IBOSSignature[] calldata signatures, uint256 nonce\n    ) external {\n        _submitIBOS(ValidationType.TRANSACTION, _hash, _result, identityBytes, signatures, nonce);\n    }\n\n    function submitBlockValidationHybrid(\n        bytes32 _hash, bool _result, uint8 mode, uint256[2] calldata tssSig,\n        bytes[] calldata msSigs, uint256 nonce\n    ) external {\n        _submitHybrid(ValidationType.BLOCK, _hash, _result, mode, tssSig, msSigs, nonce);\n    }\n\n    function submitTransactionValidationHybrid(\n        bytes32 _hash, bool _result, uint8 mode, uint256[2] calldata tssSig,\n        bytes[] calldata msSigs, uint256 nonce\n    ) external {\n        _submitHybrid(ValidationType.TRANSACTION, _hash, _result, mode, tssSig, msSigs, nonce);\n    }\n\n    // ========================================================\n    //   Pairing \n    // ========================================================\n    function _submitIBOS(\n        ValidationType _typ, bytes32 _hash, bool _result, bytes[] calldata ids,\n        IBOSSignature[] calldata sigs, uint256 nonce\n    ) private {\n        require(allowIBOS, \"IBOS disabled\");\n        require(_typ != ValidationType.UNKNOWN, \"unknown type\");\n        require(!usedNonce[nonce], \"nonce used\");\n        usedNonce[nonce] = true;\n        require(ids.length == sigs.length, \"length mismatch\");\n        require(ids.length > 0, \"empty signatures\");\n        require(registryContract.oracleNodeIsRegistered(msg.sender), \"Sender not registered\");\n\n        //   verify \n        // \n        bool valid = true; \n        require(valid, \"IBOS signature verification failed\");\n\n        uint256 defaultStake = 10 ether; \n        //  index out of bounds sigs  require > 0\n        if (sigs.length > 0) {\n            _payFee(defaultStake, sigs[0].S[0]);\n        }\n\n        if (_typ == ValidationType.BLOCK) {\n            blockValidationResults[_hash] = _result;\n        } else if (_typ == ValidationType.TRANSACTION) {\n            txValidationResults[_hash] = _result;\n        }\n        \n        uint256 seed = 0;\n        if (sigs.length > 0) seed = sigs[0].S[0];\n        emit ValidationResponse(_typ, msg.sender, _hash, _result, calculateFee(defaultStake, seed));\n    }\n\n    function _submitHybrid(\n        ValidationType _typ, bytes32 _hash, bool _result, uint8, \n        uint256[2] calldata tssSig, bytes[] calldata, uint256 nonce\n    ) private {\n        require(!usedNonce[nonce], \"nonce used\");\n        usedNonce[nonce] = true;\n        require(registryContract.oracleNodeIsRegistered(msg.sender), \"Sender not registered\");\n        \n        //   TSS  pairing check\n        // require(BN256G1.bn256CheckPairing(input), \"invalid TSS signature\"); \n\n        uint256 defaultStake = 100 ether;\n        uint256 fee = calculateFee(defaultStake, tssSig[0]);\n        \n        _payFee(defaultStake, fee);\n        if (_typ == ValidationType.BLOCK) { blockValidationResults[_hash] = _result; } \n        else if (_typ == ValidationType.TRANSACTION) { txValidationResults[_hash] = _result; }\n        emit ValidationResponse(_typ, msg.sender, _hash, _result, fee);\n    }\n\n    // ... Helpers ...\n    function _payFee(uint256 stake, uint256 seed) internal {\n         uint256 fee = calculateFee(stake, seed);\n         (bool success, ) = payable(msg.sender).call{value: fee}(\"\");\n         require(success, \"Transfer failed.\");\n    }\n    function calculateFee(uint256 _stake, uint256 _seed) private returns (uint256) {\n        if (isValidationFeeReceiver(_stake, _seed)) {\n            uint256 totalFee = BASE_FEE + VALIDATOR_FEE * requestsSinceLastPayout;\n            requestsSinceLastPayout = 0;\n            return totalFee;\n        }\n        requestsSinceLastPayout++;\n        return BASE_FEE;\n    }\n    function isValidationFeeReceiver(uint256 _stake, uint256 _seed) public pure returns (bool) {\n        uint256 scalingFactor = (_stake / 1 ether)**2;\n        if (scalingFactor == 0) return false;\n        return (_seed % (1000 / scalingFactor)) == 1;\n    }\n    \n    // Legacy functions\n    function submitBlockValidationResult(bytes32, bool, uint256[2] calldata) external pure { revert(\"Deprecated\"); }\n    function submitTransactionValidationResult(bytes32, bool, uint256[2] calldata) external pure { revert(\"Deprecated\"); }\n    function findBlockValidationResult(bytes32 _hash) public view returns (bool) { return blockValidationResults[_hash]; }\n    function findTransactionValidationResult(bytes32 _hash) public view returns (bool) { return txValidationResults[_hash]; }\n    receive() external payable {}\n}\n",
  "sourcePath": "/home/st//research-ioporacle-main/ioporaclecontracts/contracts/OracleContract.sol",
  "compiler": {
    "name": "solc",
    "version": "0.8.33+commit.64118f21.Emscripten.clang"
  },
  "schemaVersion": "3.4.16",
  "updatedAt": "2026-01-07T05:46:17.178Z",
  "networkType": "ethereum",
  "devdoc": {
    "kind": "dev",
    "methods": {},
    "version": 1
  },
  "userdoc": {
    "kind": "user",
    "methods": {},
    "version": 1
  }
}