{
  "contractName": "RegistryContract",
  "abi": [
    {
      "inputs": [
        {
          "internalType": "address",
          "name": "_distKeyContract",
          "type": "address"
        }
      ],
      "stateMutability": "nonpayable",
      "type": "constructor"
    },
    {
      "anonymous": false,
      "inputs": [
        {
          "indexed": true,
          "internalType": "address",
          "name": "sender",
          "type": "address"
        }
      ],
      "name": "RegisterOracleNode",
      "type": "event"
    },
    {
      "inputs": [],
      "name": "MIN_STAKE",
      "outputs": [
        {
          "internalType": "uint256",
          "name": "",
          "type": "uint256"
        }
      ],
      "stateMutability": "view",
      "type": "function",
      "constant": true
    },
    {
      "inputs": [
        {
          "internalType": "string",
          "name": "_ipAddr",
          "type": "string"
        },
        {
          "internalType": "bytes",
          "name": "_pubKey",
          "type": "bytes"
        }
      ],
      "name": "registerOracleNode",
      "outputs": [],
      "stateMutability": "payable",
      "type": "function",
      "payable": true
    },
    {
      "inputs": [
        {
          "internalType": "address",
          "name": "_addr",
          "type": "address"
        }
      ],
      "name": "oracleNodeIsRegistered",
      "outputs": [
        {
          "internalType": "bool",
          "name": "",
          "type": "bool"
        }
      ],
      "stateMutability": "view",
      "type": "function",
      "constant": true
    },
    {
      "inputs": [
        {
          "internalType": "address",
          "name": "_addr",
          "type": "address"
        }
      ],
      "name": "findOracleNodeByAddress",
      "outputs": [
        {
          "components": [
            {
              "internalType": "address",
              "name": "addr",
              "type": "address"
            },
            {
              "internalType": "string",
              "name": "ipAddr",
              "type": "string"
            },
            {
              "internalType": "bytes",
              "name": "pubKey",
              "type": "bytes"
            },
            {
              "internalType": "uint256",
              "name": "stake",
              "type": "uint256"
            },
            {
              "internalType": "uint256",
              "name": "index",
              "type": "uint256"
            }
          ],
          "internalType": "struct RegistryContract.OracleNode",
          "name": "",
          "type": "tuple"
        }
      ],
      "stateMutability": "view",
      "type": "function",
      "constant": true
    },
    {
      "inputs": [
        {
          "internalType": "uint256",
          "name": "_index",
          "type": "uint256"
        }
      ],
      "name": "findOracleNodeByIndex",
      "outputs": [
        {
          "components": [
            {
              "internalType": "address",
              "name": "addr",
              "type": "address"
            },
            {
              "internalType": "string",
              "name": "ipAddr",
              "type": "string"
            },
            {
              "internalType": "bytes",
              "name": "pubKey",
              "type": "bytes"
            },
            {
              "internalType": "uint256",
              "name": "stake",
              "type": "uint256"
            },
            {
              "internalType": "uint256",
              "name": "index",
              "type": "uint256"
            }
          ],
          "internalType": "struct RegistryContract.OracleNode",
          "name": "",
          "type": "tuple"
        }
      ],
      "stateMutability": "view",
      "type": "function",
      "constant": true
    },
    {
      "inputs": [],
      "name": "countOracleNodes",
      "outputs": [
        {
          "internalType": "uint256",
          "name": "",
          "type": "uint256"
        }
      ],
      "stateMutability": "view",
      "type": "function",
      "constant": true
    },
    {
      "inputs": [
        {
          "internalType": "address",
          "name": "_addr",
          "type": "address"
        }
      ],
      "name": "isAggregator",
      "outputs": [
        {
          "internalType": "bool",
          "name": "",
          "type": "bool"
        }
      ],
      "stateMutability": "view",
      "type": "function",
      "constant": true
    },
    {
      "inputs": [
        {
          "internalType": "address",
          "name": "_addr",
          "type": "address"
        },
        {
          "internalType": "uint256",
          "name": "_block",
          "type": "uint256"
        }
      ],
      "name": "isAggregatorByBlock",
      "outputs": [
        {
          "internalType": "bool",
          "name": "",
          "type": "bool"
        }
      ],
      "stateMutability": "view",
      "type": "function",
      "constant": true
    },
    {
      "inputs": [],
      "name": "getAggregator",
      "outputs": [
        {
          "components": [
            {
              "internalType": "address",
              "name": "addr",
              "type": "address"
            },
            {
              "internalType": "string",
              "name": "ipAddr",
              "type": "string"
            },
            {
              "internalType": "bytes",
              "name": "pubKey",
              "type": "bytes"
            },
            {
              "internalType": "uint256",
              "name": "stake",
              "type": "uint256"
            },
            {
              "internalType": "uint256",
              "name": "index",
              "type": "uint256"
            }
          ],
          "internalType": "struct RegistryContract.OracleNode",
          "name": "",
          "type": "tuple"
        }
      ],
      "stateMutability": "view",
      "type": "function",
      "constant": true
    },
    {
      "inputs": [
        {
          "internalType": "uint256",
          "name": "_block",
          "type": "uint256"
        }
      ],
      "name": "getAggregatorByBlock",
      "outputs": [
        {
          "components": [
            {
              "internalType": "address",
              "name": "addr",
              "type": "address"
            },
            {
              "internalType": "string",
              "name": "ipAddr",
              "type": "string"
            },
            {
              "internalType": "bytes",
              "name": "pubKey",
              "type": "bytes"
            },
            {
              "internalType": "uint256",
              "name": "stake",
              "type": "uint256"
            },
            {
              "internalType": "uint256",
              "name": "index",
              "type": "uint256"
            }
          ],
          "internalType": "struct RegistryContract.OracleNode",
          "name": "",
          "type": "tuple"
        }
      ],
      "stateMutability": "view",
      "type": "function",
      "constant": true
    }
  ],
  "bytecode": "0x608034607057601f610be738819003918201601f19168301916001600160401b03831184841017607557808492602094604052833981010312607057516001600160a01b03811690819003607057600280546001600160a01b031916919091179055604051610b5b908161008c8239f35b600080fd5b634e487b7160e01b600052604160045260246000fdfe6080604052600436101561001257600080fd5b6000803560e01c8063140f3daa146106335780631e8f3c9514610601578063272132e9146105e15780633ad59dbc1461058b57806359798dfd14610556578063655a102f1461052157806368982668146104ef578063836f187a146104d1578063cb1c2b5c146104ae5763df74f12c1461008b57600080fd5b60403660031901126104ab5760043567ffffffffffffffff81116104a9576100b790369060040161070d565b60249291923567ffffffffffffffff81116104a5576100da90369060040161070d565b90936100e53361076c565b61046b57670de0b6b3a7640000341061043257338452836020526040842092336bffffffffffffffffffffffff60a01b855416178455600184019167ffffffffffffffff821161041e576101438261013d855461086d565b85610a80565b8590601f83116001146103ba576101729291879183610337575b50508160011b916000199060031b1c19161790565b90555b600282019067ffffffffffffffff81116103a65761019d81610197845461086d565b84610a80565b83601f821160011461034257819085966101cd949596926103375750508160011b916000199060031b1c19161790565b90555b3460038201556001546004820181905590546001600160a01b031690680100000000000000008110156103235780600161020d920160015561073b565b819291549060031b91821b9160018060a01b03901b191617905580604051337f463624ffd45713d944420ab743c635b5714b8dbabe9c3ae0045ba085e71fada08380a2600154600254637e58400f60e11b83526001600160a01b03169190602082600481865afa9081156103185784916102dd575b61028c9250610ae3565b156102945750f35b803b156102da57818091600460405180958193630a86ef0d60e21b83525af180156102cd576102c1579050f35b6102ca916107e6565b80f35b50604051903d90823e3d90fd5b50fd5b90506020823d602011610310575b816102f8602093836107e6565b8101031261030b5761028c915190610282565b505050fd5b3d91506102eb565b6040513d86823e3d90fd5b634e487b7160e01b83526041600452602483fd5b01359050388061015d565b601f198216958386526020862091865b88811061038e57508360019596979810610374575b505050811b0190556101d0565b0135600019600384901b60f8161c19169055388080610367565b90926020600181928686013581550194019101610352565b634e487b7160e01b84526041600452602484fd5b8387526020872091601f198416885b81811061040657509084600195949392106103ec575b505050811b019055610175565b0135600019600384901b60f8161c191690553880806103df565b919360206001819287870135815501950192016103c9565b634e487b7160e01b86526041600452602486fd5b60405162461bcd60e51b81526020600482015260116024820152706d696e207374616b6520746f6f206c6f7760781b6044820152606490fd5b60405162461bcd60e51b8152602060048201526012602482015271185b1c9958591e481c9959da5cdd195c995960721b6044820152606490fd5b8280fd5b505b80fd5b50346104ab57806003193601126104ab576020604051670de0b6b3a76400008152f35b50346104ab57806003193601126104ab576020600154604051908152f35b50346104ab5760403660031901126104ab57602061051761050e610657565b60243590610a0c565b6040519015158152f35b50346104ab5760203660031901126104ab57610552610546610541610657565b6109ce565b604051918291826106b3565b0390f35b50346104ab5760203660031901126104ab5750610571610808565b506105526105466006610585600435610b03565b0461092a565b50346104ab57806003193601126104ab576105a4610808565b5060014301908143116105cd5760066105856105529361054693506105c7610808565b50610b03565b634e487b7160e01b81526011600452602490fd5b50346104ab5760203660031901126104ab5761055261054660043561092a565b50346104ab5760203660031901126104ab5761061b610657565b60014301918243116105cd5760206105178484610a0c565b50346104ab5760203660031901126104ab576020610517610652610657565b61076c565b600435906001600160a01b038216820361066d57565b600080fd5b919082519283825260005b84811061069e575050826000602080949584010152601f8019910116010190565b8060208092840101518282860101520161067d565b6020815260018060a01b03825116602082015260a060806106fb6106e5602086015184604087015260c0860190610672565b6040860151858203601f19016060870152610672565b93606081015182850152015191015290565b9181601f8401121561066d5782359167ffffffffffffffff831161066d576020838186019501011161066d57565b60015481101561075657600160005260206000200190600090565b634e487b7160e01b600052603260045260246000fd5b600154156107ae576001600160a01b03166000818152602081905260409020600401546107989061073b565b905460039190911b1c6001600160a01b03161490565b50600090565b60a0810190811067ffffffffffffffff8211176107d057604052565b634e487b7160e01b600052604160045260246000fd5b90601f8019910116810190811067ffffffffffffffff8211176107d057604052565b60405190610815826107b4565b600060808382815260606020820152606060408201528260608201520152565b1561083c57565b60405162461bcd60e51b81526020600482015260096024820152681b9bdd08199bdd5b9960ba1b6044820152606490fd5b90600182811c9216801561089d575b602083101461088757565b634e487b7160e01b600052602260045260246000fd5b91607f169161087c565b600092918154916108b78361086d565b808352926001811690811561090d57506001146108d357505050565b60009081526020812093945091925b8383106108f3575060209250010190565b6001816020929493945483858701015201910191906108e2565b915050602093945060ff929192191683830152151560051b010190565b61094990610936610808565b506109446001548210610835565b61073b565b60018060a01b0391549060031b1c1660005260006020526040600020600460405191610974836107b4565b80546001600160a01b0316835260405161099c8161099581600186016108a7565b03826107e6565b60208401526040516109b58161099581600286016108a7565b6040840152600381015460608401520154608082015290565b6109d6610808565b506109e86109e38261076c565b610835565b60018060a01b031660005260006020526040600020600460405191610974836107b4565b610a20610a1a6080926109ce565b92610b03565b9101908151600681029080820460061490151715610a6a578110159182610a4657505090565b516001810192508210610a6a57600682029180830460061490151715610a6a571090565b634e487b7160e01b600052601160045260246000fd5b919091601f8311610a91575b505050565b818311610a9d57505050565b60005260206000206020601f830160051c9210610ada575b81601f9101920160051c039060005b82811015610a8c57600082820155600101610ac4565b60009150610ab5565b8115610aed570690565b634e487b7160e01b600052601260045260246000fd5b600154600681029080820460061490151715610a6a57610b2291610ae3565b9056fea264697066735822122024c585c57a56c3629782ce74658bcc2c48012f6dcee803650c17c8528283bd2d64736f6c63430008210033",
  "immutableReferences": {},
  "source": "// SPDX-License-Identifier: MIT\npragma solidity ^0.8.0;\n\nimport \"./DistKeyContract.sol\";\n\ncontract RegistryContract {\n    struct OracleNode {\n        address addr;\n        string ipAddr;\n        bytes pubKey;\n        uint256 stake;\n        uint256 index;\n    }\n\n    uint256 private constant BLOCK_RANGE = 6;\n    uint256 public constant MIN_STAKE = 1 ether;\n\n    mapping(address => OracleNode) private oracleNodes;\n    address[] private oracleNodeIndices;\n\n    event RegisterOracleNode(address indexed sender);\n\n    DistKeyContract private distKeyContract;\n\n    constructor(address _distKeyContract) {\n        distKeyContract = DistKeyContract(_distKeyContract);\n    }\n\n    function registerOracleNode(string calldata _ipAddr, bytes calldata _pubKey)\n        external\n        payable\n    {\n        require(!oracleNodeIsRegistered(msg.sender), \"already registered\");\n        require(msg.value >= MIN_STAKE, \"min stake too low\");\n\n        OracleNode storage iopNode = oracleNodes[msg.sender];\n        iopNode.addr = msg.sender;\n        iopNode.ipAddr = _ipAddr;\n        iopNode.pubKey = _pubKey;\n        iopNode.stake = msg.value;\n        iopNode.index = oracleNodeIndices.length;\n        oracleNodeIndices.push(iopNode.addr);\n\n        emit RegisterOracleNode(msg.sender);\n\n        if (\n            oracleNodeIndices.length % distKeyContract.KEY_GEN_INTERVAL() == 0\n        ) {\n            distKeyContract.generate();\n        }\n    }\n\n    function oracleNodeIsRegistered(address _addr) public view returns (bool) {\n        if (oracleNodeIndices.length == 0) return false;\n        return (oracleNodeIndices[oracleNodes[_addr].index] == _addr);\n    }\n\n    function findOracleNodeByAddress(address _addr)\n        public\n        view\n        returns (OracleNode memory)\n    {\n        require(oracleNodeIsRegistered(_addr), \"not found\");\n        return oracleNodes[_addr];\n    }\n\n    function findOracleNodeByIndex(uint256 _index)\n        public\n        view\n        returns (OracleNode memory)\n    {\n        require(_index >= 0 && _index < oracleNodeIndices.length, \"not found\");\n        return oracleNodes[oracleNodeIndices[_index]];\n    }\n\n    function countOracleNodes() external view returns (uint256) {\n        return oracleNodeIndices.length;\n    }\n\n    function isAggregator(address _addr) public view returns (bool) {\n        /**\n         * As this method is a call, block.number refers to an already finalized block.\n         * But aggregators submit transactions that should be included in a new block,\n         * therefore the information of the aggregator of a finalized block is outdated.\n         */\n        return isAggregatorByBlock(_addr, block.number + 1);\n    }\n\n    function isAggregatorByBlock(address _addr, uint256 _block)\n        public\n        view\n        returns (bool)\n    {\n        OracleNode memory iopNode = findOracleNodeByAddress(_addr);\n        uint256 chosen = blockNumberMod(_block);\n        return\n            chosen >= iopNode.index * BLOCK_RANGE &&\n            chosen < (iopNode.index + 1) * BLOCK_RANGE;\n    }\n\n    function getAggregator() public view returns (OracleNode memory) {\n        /**\n         * As this method is a call, block.number refers to an already finalized block.\n         * But aggregators submit transactions that should be included in a new block,\n         * therefore the information of the aggregator of a finalized block is outdated.\n         */\n        return getAggregatorByBlock(block.number + 1);\n    }\n\n    function getAggregatorByBlock(uint256 _block)\n        public\n        view\n        returns (OracleNode memory)\n    {\n        uint256 i = blockNumberMod(_block) / BLOCK_RANGE;\n        return findOracleNodeByIndex(i);\n    }\n\n    function blockNumberMod(uint256 _block) internal view returns (uint256) {\n        return _block % (oracleNodeIndices.length * BLOCK_RANGE);\n    }\n}\n",
  "sourcePath": "/home/st/下载/research-ioporacle-main/ioporaclecontracts/contracts/RegistryContract.sol",
  "compiler": {
    "name": "solc",
    "version": "0.8.33+commit.64118f21.Emscripten.clang"
  },
  "schemaVersion": "3.4.16",
  "updatedAt": "2026-01-07T05:46:17.155Z",
  "networkType": "ethereum",
  "devdoc": {
    "kind": "dev",
    "methods": {},
    "version": 1
  },
  "userdoc": {
    "kind": "user",
    "methods": {},
    "version": 1
  }
}